{
    "_format": "hh-sol-artifact-1",
    "contractName": "PYUSDPayment",
    "sourceName": "contracts/PYUSDPayment.sol",
    "abi": [
        {
            "inputs": [
                {
                    "internalType": "address",
                    "name": "_pyusdAddress",
                    "type": "address"
                }
            ],
            "stateMutability": "nonpayable",
            "type": "constructor"
        },
        {
            "inputs": [
                {
                    "internalType": "address",
                    "name": "owner",
                    "type": "address"
                }
            ],
            "name": "OwnableInvalidOwner",
            "type": "error"
        },
        {
            "inputs": [
                {
                    "internalType": "address",
                    "name": "account",
                    "type": "address"
                }
            ],
            "name": "OwnableUnauthorizedAccount",
            "type": "error"
        },
        {
            "anonymous": false,
            "inputs": [
                {
                    "indexed": true,
                    "internalType": "address",
                    "name": "previousOwner",
                    "type": "address"
                },
                {
                    "indexed": true,
                    "internalType": "address",
                    "name": "newOwner",
                    "type": "address"
                }
            ],
            "name": "OwnershipTransferred",
            "type": "event"
        },
        {
            "anonymous": false,
            "inputs": [
                {
                    "indexed": true,
                    "internalType": "address",
                    "name": "from",
                    "type": "address"
                },
                {
                    "indexed": false,
                    "internalType": "uint256",
                    "name": "amount",
                    "type": "uint256"
                }
            ],
            "name": "Paid",
            "type": "event"
        },
        {
            "anonymous": false,
            "inputs": [
                {
                    "indexed": true,
                    "internalType": "address",
                    "name": "to",
                    "type": "address"
                },
                {
                    "indexed": false,
                    "internalType": "uint256",
                    "name": "amount",
                    "type": "uint256"
                }
            ],
            "name": "Withdrawn",
            "type": "event"
        },
        {
            "inputs": [],
            "name": "MINIMUM_PRICE",
            "outputs": [
                {
                    "internalType": "uint256",
                    "name": "",
                    "type": "uint256"
                }
            ],
            "stateMutability": "view",
            "type": "function"
        },
        {
            "inputs": [],
            "name": "balanceOfContract",
            "outputs": [
                {
                    "internalType": "uint256",
                    "name": "",
                    "type": "uint256"
                }
            ],
            "stateMutability": "view",
            "type": "function"
        },
        {
            "inputs": [],
            "name": "owner",
            "outputs": [
                {
                    "internalType": "address",
                    "name": "",
                    "type": "address"
                }
            ],
            "stateMutability": "view",
            "type": "function"
        },
        {
            "inputs": [
                {
                    "internalType": "uint256",
                    "name": "amount",
                    "type": "uint256"
                }
            ],
            "name": "pay",
            "outputs": [],
            "stateMutability": "nonpayable",
            "type": "function"
        },
        {
            "inputs": [],
            "name": "pyusd",
            "outputs": [
                {
                    "internalType": "contract IERC20",
                    "name": "",
                    "type": "address"
                }
            ],
            "stateMutability": "view",
            "type": "function"
        },
        {
            "inputs": [],
            "name": "renounceOwnership",
            "outputs": [],
            "stateMutability": "nonpayable",
            "type": "function"
        },
        {
            "inputs": [
                {
                    "internalType": "address",
                    "name": "newOwner",
                    "type": "address"
                }
            ],
            "name": "transferOwnership",
            "outputs": [],
            "stateMutability": "nonpayable",
            "type": "function"
        },
        {
            "inputs": [
                {
                    "internalType": "uint256",
                    "name": "amount",
                    "type": "uint256"
                }
            ],
            "name": "withdraw",
            "outputs": [],
            "stateMutability": "nonpayable",
            "type": "function"
        }
    ],
    "bytecode": "0x60806040523480156200001157600080fd5b5060405162000f4938038062000f498339818101604052810190620000379190620002bb565b73b68918211ad90462fbcf75b77a30bf76515422ce600073ffffffffffffffffffffffffffffffffffffffff168173ffffffffffffffffffffffffffffffffffffffff1603620000c15760006040517f1e4fbdf7000000000000000000000000000000000000000000000000000000008152600401620000b89190620002fe565b60405180910390fd5b620000d2816200018d60201b60201c565b50600073ffffffffffffffffffffffffffffffffffffffff168173ffffffffffffffffffffffffffffffffffffffff160362000145576040517f08c379a00000000000000000000000000000000000000000000000000000000081526004016200013c906200037c565b60405180910390fd5b80600160006101000a81548173ffffffffffffffffffffffffffffffffffffffff021916908373ffffffffffffffffffffffffffffffffffffffff160217905550506200039e565b60008060009054906101000a900473ffffffffffffffffffffffffffffffffffffffff169050816000806101000a81548173ffffffffffffffffffffffffffffffffffffffff021916908373ffffffffffffffffffffffffffffffffffffffff1602179055508173ffffffffffffffffffffffffffffffffffffffff168173ffffffffffffffffffffffffffffffffffffffff167f8be0079c531659141344cd1fd0a4f28419497f9722a3daafe3b4186f6b6457e060405160405180910390a35050565b600080fd5b600073ffffffffffffffffffffffffffffffffffffffff82169050919050565b6000620002838262000256565b9050919050565b620002958162000276565b8114620002a157600080fd5b50565b600081519050620002b5816200028a565b92915050565b600060208284031215620002d457620002d362000251565b5b6000620002e484828501620002a4565b91505092915050565b620002f88162000276565b82525050565b6000602082019050620003156000830184620002ed565b92915050565b600082825260208201905092915050565b7f496e76616c696420505955534420616464726573730000000000000000000000600082015250565b6000620003646015836200031b565b915062000371826200032c565b602082019050919050565b60006020820190508181036000830152620003978162000355565b9050919050565b610b9b80620003ae6000396000f3fe608060405234801561001057600080fd5b50600436106100885760003560e01c80638da5cb5b1161005b5780638da5cb5b146100ef578063c290d6911461010d578063e6c7c45614610129578063f2fde38b1461014757610088565b806322e669d31461008d5780632e1a7d4d146100ab57806335187665146100c7578063715018a6146100e5575b600080fd5b610095610163565b6040516100a291906107c7565b60405180910390f35b6100c560048036038101906100c0919061081d565b610189565b005b6100cf61030a565b6040516100dc9190610859565b60405180910390f35b6100ed610311565b005b6100f7610325565b6040516101049190610895565b60405180910390f35b6101276004803603810190610122919061081d565b61034e565b005b6101316104cc565b60405161013e9190610859565b60405180910390f35b610161600480360381019061015c91906108dc565b61056f565b005b600160009054906101000a900473ffffffffffffffffffffffffffffffffffffffff1681565b6101916105f5565b600081116101d4576040517f08c379a00000000000000000000000000000000000000000000000000000000081526004016101cb90610966565b60405180910390fd5b6000600160009054906101000a900473ffffffffffffffffffffffffffffffffffffffff1673ffffffffffffffffffffffffffffffffffffffff1663a9059cbb33846040518363ffffffff1660e01b8152600401610233929190610986565b6020604051808303816000875af1158015610252573d6000803e3d6000fd5b505050506040513d601f19601f8201168201806040525081019061027691906109e7565b9050806102b8576040517f08c379a00000000000000000000000000000000000000000000000000000000081526004016102af90610a60565b60405180910390fd5b3373ffffffffffffffffffffffffffffffffffffffff167f7084f5476618d8e60b11ef0d7d3f06914655adb8793e28ff7f018d4c76d505d5836040516102fe9190610859565b60405180910390a25050565b620f424081565b6103196105f5565b610323600061067c565b565b60008060009054906101000a900473ffffffffffffffffffffffffffffffffffffffff16905090565b620f4240811015610394576040517f08c379a000000000000000000000000000000000000000000000000000000000815260040161038b90610acc565b60405180910390fd5b6000600160009054906101000a900473ffffffffffffffffffffffffffffffffffffffff1673ffffffffffffffffffffffffffffffffffffffff166323b872dd3330856040518463ffffffff1660e01b81526004016103f593929190610aec565b6020604051808303816000875af1158015610414573d6000803e3d6000fd5b505050506040513d601f19601f8201168201806040525081019061043891906109e7565b90508061047a576040517f08c379a000000000000000000000000000000000000000000000000000000000815260040161047190610a60565b60405180910390fd5b3373ffffffffffffffffffffffffffffffffffffffff167f737c69225d647e5994eab1a6c301bf6d9232beb2759ae1e27a8966b4732bc489836040516104c09190610859565b60405180910390a25050565b6000600160009054906101000a900473ffffffffffffffffffffffffffffffffffffffff1673ffffffffffffffffffffffffffffffffffffffff166370a08231306040518263ffffffff1660e01b81526004016105299190610895565b602060405180830381865afa158015610546573d6000803e3d6000fd5b505050506040513d601f19601f8201168201806040525081019061056a9190610b38565b905090565b6105776105f5565b600073ffffffffffffffffffffffffffffffffffffffff168173ffffffffffffffffffffffffffffffffffffffff16036105e95760006040517f1e4fbdf70000000000000000000000000000000000000000000000000000000081526004016105e09190610895565b60405180910390fd5b6105f28161067c565b50565b6105fd610740565b73ffffffffffffffffffffffffffffffffffffffff1661061b610325565b73ffffffffffffffffffffffffffffffffffffffff161461067a5761063e610740565b6040517f118cdaa70000000000000000000000000000000000000000000000000000000081526004016106719190610895565b60405180910390fd5b565b60008060009054906101000a900473ffffffffffffffffffffffffffffffffffffffff169050816000806101000a81548173ffffffffffffffffffffffffffffffffffffffff021916908373ffffffffffffffffffffffffffffffffffffffff1602179055508173ffffffffffffffffffffffffffffffffffffffff168173ffffffffffffffffffffffffffffffffffffffff167f8be0079c531659141344cd1fd0a4f28419497f9722a3daafe3b4186f6b6457e060405160405180910390a35050565b600033905090565b600073ffffffffffffffffffffffffffffffffffffffff82169050919050565b6000819050919050565b600061078d61078861078384610748565b610768565b610748565b9050919050565b600061079f82610772565b9050919050565b60006107b182610794565b9050919050565b6107c1816107a6565b82525050565b60006020820190506107dc60008301846107b8565b92915050565b600080fd5b6000819050919050565b6107fa816107e7565b811461080557600080fd5b50565b600081359050610817816107f1565b92915050565b600060208284031215610833576108326107e2565b5b600061084184828501610808565b91505092915050565b610853816107e7565b82525050565b600060208201905061086e600083018461084a565b92915050565b600061087f82610748565b9050919050565b61088f81610874565b82525050565b60006020820190506108aa6000830184610886565b92915050565b6108b981610874565b81146108c457600080fd5b50565b6000813590506108d6816108b0565b92915050565b6000602082840312156108f2576108f16107e2565b5b6000610900848285016108c7565b91505092915050565b600082825260208201905092915050565b7f416d6f756e74206d757374206265203e20300000000000000000000000000000600082015250565b6000610950601283610909565b915061095b8261091a565b602082019050919050565b6000602082019050818103600083015261097f81610943565b9050919050565b600060408201905061099b6000830185610886565b6109a8602083018461084a565b9392505050565b60008115159050919050565b6109c4816109af565b81146109cf57600080fd5b50565b6000815190506109e1816109bb565b92915050565b6000602082840312156109fd576109fc6107e2565b5b6000610a0b848285016109d2565b91505092915050565b7f5472616e73666572206661696c65640000000000000000000000000000000000600082015250565b6000610a4a600f83610909565b9150610a5582610a14565b602082019050919050565b60006020820190508181036000830152610a7981610a3d565b9050919050565b7f416d6f756e74206d757374206265206174206c65617374203120505955534400600082015250565b6000610ab6601f83610909565b9150610ac182610a80565b602082019050919050565b60006020820190508181036000830152610ae581610aa9565b9050919050565b6000606082019050610b016000830186610886565b610b0e6020830185610886565b610b1b604083018461084a565b949350505050565b600081519050610b32816107f1565b92915050565b600060208284031215610b4e57610b4d6107e2565b5b6000610b5c84828501610b23565b9150509291505056fea26469706673582212200b6c632f296f8d3a5b2966e8125dd3f650041d8264fe3cdfe2a25a6347a982ca64736f6c63430008140033",
    "linkReferences": {},
    "deployedLinkReferences": {}
}