{
    "_format": "hh-sol-artifact-1",
    "contractName": "DreamprintNFT",
    "sourceName": "contracts/DreamprintNFT.sol",
    "abi": [
        {
            "inputs": [
                {
                    "internalType": "string",
                    "name": "_initialBaseURI",
                    "type": "string"
                }
            ],
            "stateMutability": "nonpayable",
            "type": "constructor"
        },
        {
            "inputs": [
                {
                    "internalType": "address",
                    "name": "sender",
                    "type": "address"
                },
                {
                    "internalType": "uint256",
                    "name": "tokenId",
                    "type": "uint256"
                },
                {
                    "internalType": "address",
                    "name": "owner",
                    "type": "address"
                }
            ],
            "name": "ERC721IncorrectOwner",
            "type": "error"
        },
        {
            "inputs": [
                {
                    "internalType": "address",
                    "name": "operator",
                    "type": "address"
                },
                {
                    "internalType": "uint256",
                    "name": "tokenId",
                    "type": "uint256"
                }
            ],
            "name": "ERC721InsufficientApproval",
            "type": "error"
        },
        {
            "inputs": [
                {
                    "internalType": "address",
                    "name": "approver",
                    "type": "address"
                }
            ],
            "name": "ERC721InvalidApprover",
            "type": "error"
        },
        {
            "inputs": [
                {
                    "internalType": "address",
                    "name": "operator",
                    "type": "address"
                }
            ],
            "name": "ERC721InvalidOperator",
            "type": "error"
        },
        {
            "inputs": [
                {
                    "internalType": "address",
                    "name": "owner",
                    "type": "address"
                }
            ],
            "name": "ERC721InvalidOwner",
            "type": "error"
        },
        {
            "inputs": [
                {
                    "internalType": "address",
                    "name": "receiver",
                    "type": "address"
                }
            ],
            "name": "ERC721InvalidReceiver",
            "type": "error"
        },
        {
            "inputs": [
                {
                    "internalType": "address",
                    "name": "sender",
                    "type": "address"
                }
            ],
            "name": "ERC721InvalidSender",
            "type": "error"
        },
        {
            "inputs": [
                {
                    "internalType": "uint256",
                    "name": "tokenId",
                    "type": "uint256"
                }
            ],
            "name": "ERC721NonexistentToken",
            "type": "error"
        },
        {
            "inputs": [
                {
                    "internalType": "address",
                    "name": "owner",
                    "type": "address"
                }
            ],
            "name": "OwnableInvalidOwner",
            "type": "error"
        },
        {
            "inputs": [
                {
                    "internalType": "address",
                    "name": "account",
                    "type": "address"
                }
            ],
            "name": "OwnableUnauthorizedAccount",
            "type": "error"
        },
        {
            "anonymous": false,
            "inputs": [
                {
                    "indexed": true,
                    "internalType": "address",
                    "name": "owner",
                    "type": "address"
                },
                {
                    "indexed": true,
                    "internalType": "address",
                    "name": "approved",
                    "type": "address"
                },
                {
                    "indexed": true,
                    "internalType": "uint256",
                    "name": "tokenId",
                    "type": "uint256"
                }
            ],
            "name": "Approval",
            "type": "event"
        },
        {
            "anonymous": false,
            "inputs": [
                {
                    "indexed": true,
                    "internalType": "address",
                    "name": "owner",
                    "type": "address"
                },
                {
                    "indexed": true,
                    "internalType": "address",
                    "name": "operator",
                    "type": "address"
                },
                {
                    "indexed": false,
                    "internalType": "bool",
                    "name": "approved",
                    "type": "bool"
                }
            ],
            "name": "ApprovalForAll",
            "type": "event"
        },
        {
            "anonymous": false,
            "inputs": [
                {
                    "indexed": false,
                    "internalType": "uint256",
                    "name": "_fromTokenId",
                    "type": "uint256"
                },
                {
                    "indexed": false,
                    "internalType": "uint256",
                    "name": "_toTokenId",
                    "type": "uint256"
                }
            ],
            "name": "BatchMetadataUpdate",
            "type": "event"
        },
        {
            "anonymous": false,
            "inputs": [
                {
                    "indexed": false,
                    "internalType": "string",
                    "name": "newBaseURI",
                    "type": "string"
                }
            ],
            "name": "MetadataURIUpdated",
            "type": "event"
        },
        {
            "anonymous": false,
            "inputs": [
                {
                    "indexed": false,
                    "internalType": "uint256",
                    "name": "_tokenId",
                    "type": "uint256"
                }
            ],
            "name": "MetadataUpdate",
            "type": "event"
        },
        {
            "anonymous": false,
            "inputs": [
                {
                    "indexed": true,
                    "internalType": "address",
                    "name": "to",
                    "type": "address"
                },
                {
                    "indexed": true,
                    "internalType": "uint256",
                    "name": "tokenId",
                    "type": "uint256"
                },
                {
                    "indexed": false,
                    "internalType": "string",
                    "name": "claimId",
                    "type": "string"
                }
            ],
            "name": "NFTMinted",
            "type": "event"
        },
        {
            "anonymous": false,
            "inputs": [
                {
                    "indexed": true,
                    "internalType": "address",
                    "name": "previousOwner",
                    "type": "address"
                },
                {
                    "indexed": true,
                    "internalType": "address",
                    "name": "newOwner",
                    "type": "address"
                }
            ],
            "name": "OwnershipTransferred",
            "type": "event"
        },
        {
            "anonymous": false,
            "inputs": [
                {
                    "indexed": true,
                    "internalType": "address",
                    "name": "from",
                    "type": "address"
                },
                {
                    "indexed": true,
                    "internalType": "address",
                    "name": "to",
                    "type": "address"
                },
                {
                    "indexed": true,
                    "internalType": "uint256",
                    "name": "tokenId",
                    "type": "uint256"
                }
            ],
            "name": "Transfer",
            "type": "event"
        },
        {
            "inputs": [
                {
                    "internalType": "string",
                    "name": "claimId",
                    "type": "string"
                },
                {
                    "internalType": "address",
                    "name": "to",
                    "type": "address"
                }
            ],
            "name": "adminMint",
            "outputs": [],
            "stateMutability": "nonpayable",
            "type": "function"
        },
        {
            "inputs": [
                {
                    "internalType": "address",
                    "name": "to",
                    "type": "address"
                },
                {
                    "internalType": "uint256",
                    "name": "tokenId",
                    "type": "uint256"
                }
            ],
            "name": "approve",
            "outputs": [],
            "stateMutability": "nonpayable",
            "type": "function"
        },
        {
            "inputs": [
                {
                    "internalType": "address",
                    "name": "owner",
                    "type": "address"
                }
            ],
            "name": "balanceOf",
            "outputs": [
                {
                    "internalType": "uint256",
                    "name": "",
                    "type": "uint256"
                }
            ],
            "stateMutability": "view",
            "type": "function"
        },
        {
            "inputs": [
                {
                    "internalType": "string",
                    "name": "",
                    "type": "string"
                }
            ],
            "name": "claimMinted",
            "outputs": [
                {
                    "internalType": "bool",
                    "name": "",
                    "type": "bool"
                }
            ],
            "stateMutability": "view",
            "type": "function"
        },
        {
            "inputs": [
                {
                    "internalType": "string",
                    "name": "",
                    "type": "string"
                }
            ],
            "name": "claimToTokenId",
            "outputs": [
                {
                    "internalType": "uint256",
                    "name": "",
                    "type": "uint256"
                }
            ],
            "stateMutability": "view",
            "type": "function"
        },
        {
            "inputs": [
                {
                    "internalType": "uint256",
                    "name": "tokenId",
                    "type": "uint256"
                }
            ],
            "name": "getApproved",
            "outputs": [
                {
                    "internalType": "address",
                    "name": "",
                    "type": "address"
                }
            ],
            "stateMutability": "view",
            "type": "function"
        },
        {
            "inputs": [],
            "name": "getBaseMetadataURI",
            "outputs": [
                {
                    "internalType": "string",
                    "name": "",
                    "type": "string"
                }
            ],
            "stateMutability": "view",
            "type": "function"
        },
        {
            "inputs": [
                {
                    "internalType": "uint256",
                    "name": "tokenId",
                    "type": "uint256"
                }
            ],
            "name": "getClaimForTokenId",
            "outputs": [
                {
                    "internalType": "string",
                    "name": "",
                    "type": "string"
                }
            ],
            "stateMutability": "view",
            "type": "function"
        },
        {
            "inputs": [],
            "name": "getNextTokenId",
            "outputs": [
                {
                    "internalType": "uint256",
                    "name": "",
                    "type": "uint256"
                }
            ],
            "stateMutability": "view",
            "type": "function"
        },
        {
            "inputs": [
                {
                    "internalType": "string",
                    "name": "claimId",
                    "type": "string"
                }
            ],
            "name": "getTokenIdForClaim",
            "outputs": [
                {
                    "internalType": "uint256",
                    "name": "",
                    "type": "uint256"
                }
            ],
            "stateMutability": "view",
            "type": "function"
        },
        {
            "inputs": [
                {
                    "internalType": "address",
                    "name": "owner",
                    "type": "address"
                },
                {
                    "internalType": "address",
                    "name": "operator",
                    "type": "address"
                }
            ],
            "name": "isApprovedForAll",
            "outputs": [
                {
                    "internalType": "bool",
                    "name": "",
                    "type": "bool"
                }
            ],
            "stateMutability": "view",
            "type": "function"
        },
        {
            "inputs": [
                {
                    "internalType": "string",
                    "name": "claimId",
                    "type": "string"
                }
            ],
            "name": "isClaimMinted",
            "outputs": [
                {
                    "internalType": "bool",
                    "name": "",
                    "type": "bool"
                }
            ],
            "stateMutability": "view",
            "type": "function"
        },
        {
            "inputs": [
                {
                    "internalType": "string",
                    "name": "claimId",
                    "type": "string"
                },
                {
                    "internalType": "address",
                    "name": "to",
                    "type": "address"
                }
            ],
            "name": "mint",
            "outputs": [],
            "stateMutability": "nonpayable",
            "type": "function"
        },
        {
            "inputs": [],
            "name": "name",
            "outputs": [
                {
                    "internalType": "string",
                    "name": "",
                    "type": "string"
                }
            ],
            "stateMutability": "view",
            "type": "function"
        },
        {
            "inputs": [],
            "name": "owner",
            "outputs": [
                {
                    "internalType": "address",
                    "name": "",
                    "type": "address"
                }
            ],
            "stateMutability": "view",
            "type": "function"
        },
        {
            "inputs": [
                {
                    "internalType": "uint256",
                    "name": "tokenId",
                    "type": "uint256"
                }
            ],
            "name": "ownerOf",
            "outputs": [
                {
                    "internalType": "address",
                    "name": "",
                    "type": "address"
                }
            ],
            "stateMutability": "view",
            "type": "function"
        },
        {
            "inputs": [],
            "name": "renounceOwnership",
            "outputs": [],
            "stateMutability": "nonpayable",
            "type": "function"
        },
        {
            "inputs": [
                {
                    "internalType": "address",
                    "name": "from",
                    "type": "address"
                },
                {
                    "internalType": "address",
                    "name": "to",
                    "type": "address"
                },
                {
                    "internalType": "uint256",
                    "name": "tokenId",
                    "type": "uint256"
                }
            ],
            "name": "safeTransferFrom",
            "outputs": [],
            "stateMutability": "nonpayable",
            "type": "function"
        },
        {
            "inputs": [
                {
                    "internalType": "address",
                    "name": "from",
                    "type": "address"
                },
                {
                    "internalType": "address",
                    "name": "to",
                    "type": "address"
                },
                {
                    "internalType": "uint256",
                    "name": "tokenId",
                    "type": "uint256"
                },
                {
                    "internalType": "bytes",
                    "name": "data",
                    "type": "bytes"
                }
            ],
            "name": "safeTransferFrom",
            "outputs": [],
            "stateMutability": "nonpayable",
            "type": "function"
        },
        {
            "inputs": [
                {
                    "internalType": "address",
                    "name": "operator",
                    "type": "address"
                },
                {
                    "internalType": "bool",
                    "name": "approved",
                    "type": "bool"
                }
            ],
            "name": "setApprovalForAll",
            "outputs": [],
            "stateMutability": "nonpayable",
            "type": "function"
        },
        {
            "inputs": [
                {
                    "internalType": "string",
                    "name": "newBaseURI",
                    "type": "string"
                }
            ],
            "name": "setBaseMetadataURI",
            "outputs": [],
            "stateMutability": "nonpayable",
            "type": "function"
        },
        {
            "inputs": [
                {
                    "internalType": "bytes4",
                    "name": "interfaceId",
                    "type": "bytes4"
                }
            ],
            "name": "supportsInterface",
            "outputs": [
                {
                    "internalType": "bool",
                    "name": "",
                    "type": "bool"
                }
            ],
            "stateMutability": "view",
            "type": "function"
        },
        {
            "inputs": [],
            "name": "symbol",
            "outputs": [
                {
                    "internalType": "string",
                    "name": "",
                    "type": "string"
                }
            ],
            "stateMutability": "view",
            "type": "function"
        },
        {
            "inputs": [
                {
                    "internalType": "uint256",
                    "name": "",
                    "type": "uint256"
                }
            ],
            "name": "tokenIdToClaim",
            "outputs": [
                {
                    "internalType": "string",
                    "name": "",
                    "type": "string"
                }
            ],
            "stateMutability": "view",
            "type": "function"
        },
        {
            "inputs": [
                {
                    "internalType": "uint256",
                    "name": "tokenId",
                    "type": "uint256"
                }
            ],
            "name": "tokenURI",
            "outputs": [
                {
                    "internalType": "string",
                    "name": "",
                    "type": "string"
                }
            ],
            "stateMutability": "view",
            "type": "function"
        },
        {
            "inputs": [],
            "name": "totalSupply",
            "outputs": [
                {
                    "internalType": "uint256",
                    "name": "",
                    "type": "uint256"
                }
            ],
            "stateMutability": "view",
            "type": "function"
        },
        {
            "inputs": [
                {
                    "internalType": "address",
                    "name": "from",
                    "type": "address"
                },
                {
                    "internalType": "address",
                    "name": "to",
                    "type": "address"
                },
                {
                    "internalType": "uint256",
                    "name": "tokenId",
                    "type": "uint256"
                }
            ],
            "name": "transferFrom",
            "outputs": [],
            "stateMutability": "nonpayable",
            "type": "function"
        },
        {
            "inputs": [
                {
                    "internalType": "address",
                    "name": "newOwner",
                    "type": "address"
                }
            ],
            "name": "transferOwnership",
            "outputs": [],
            "stateMutability": "nonpayable",
            "type": "function"
        }
    ],
    "bytecode": "0x608060405260016008553480156200001657600080fd5b5060405162003c8d38038062003c8d83398181016040528101906200003c9190620003dc565b73b68918211ad90462fbcf75b77a30bf76515422ce6040518060400160405280600a81526020017f447265616d7072696e74000000000000000000000000000000000000000000008152506040518060400160405280600581526020017f445245414d0000000000000000000000000000000000000000000000000000008152508160009081620000ce919062000678565b508060019081620000e0919062000678565b505050600073ffffffffffffffffffffffffffffffffffffffff168173ffffffffffffffffffffffffffffffffffffffff1603620001585760006040517f1e4fbdf70000000000000000000000000000000000000000000000000000000081526004016200014f9190620007a4565b60405180910390fd5b62000169816200018360201b60201c565b5080600990816200017b919062000678565b5050620007c1565b6000600760009054906101000a900473ffffffffffffffffffffffffffffffffffffffff16905081600760006101000a81548173ffffffffffffffffffffffffffffffffffffffff021916908373ffffffffffffffffffffffffffffffffffffffff1602179055508173ffffffffffffffffffffffffffffffffffffffff168173ffffffffffffffffffffffffffffffffffffffff167f8be0079c531659141344cd1fd0a4f28419497f9722a3daafe3b4186f6b6457e060405160405180910390a35050565b6000604051905090565b600080fd5b600080fd5b600080fd5b600080fd5b6000601f19601f8301169050919050565b7f4e487b7100000000000000000000000000000000000000000000000000000000600052604160045260246000fd5b620002b28262000267565b810181811067ffffffffffffffff82111715620002d457620002d362000278565b5b80604052505050565b6000620002e962000249565b9050620002f78282620002a7565b919050565b600067ffffffffffffffff8211156200031a576200031962000278565b5b620003258262000267565b9050602081019050919050565b60005b838110156200035257808201518184015260208101905062000335565b60008484015250505050565b6000620003756200036f84620002fc565b620002dd565b90508281526020810184848401111562000394576200039362000262565b5b620003a184828562000332565b509392505050565b600082601f830112620003c157620003c06200025d565b5b8151620003d38482602086016200035e565b91505092915050565b600060208284031215620003f557620003f462000253565b5b600082015167ffffffffffffffff81111562000416576200041562000258565b5b6200042484828501620003a9565b91505092915050565b600081519050919050565b7f4e487b7100000000000000000000000000000000000000000000000000000000600052602260045260246000fd5b600060028204905060018216806200048057607f821691505b60208210810362000496576200049562000438565b5b50919050565b60008190508160005260206000209050919050565b60006020601f8301049050919050565b600082821b905092915050565b600060088302620005007fffffffffffffffffffffffffffffffffffffffffffffffffffffffffffffffff82620004c1565b6200050c8683620004c1565b95508019841693508086168417925050509392505050565b6000819050919050565b6000819050919050565b600062000559620005536200054d8462000524565b6200052e565b62000524565b9050919050565b6000819050919050565b620005758362000538565b6200058d620005848262000560565b848454620004ce565b825550505050565b600090565b620005a462000595565b620005b18184846200056a565b505050565b5b81811015620005d957620005cd6000826200059a565b600181019050620005b7565b5050565b601f8211156200062857620005f2816200049c565b620005fd84620004b1565b810160208510156200060d578190505b620006256200061c85620004b1565b830182620005b6565b50505b505050565b600082821c905092915050565b60006200064d600019846008026200062d565b1980831691505092915050565b60006200066883836200063a565b9150826002028217905092915050565b62000683826200042d565b67ffffffffffffffff8111156200069f576200069e62000278565b5b620006ab825462000467565b620006b8828285620005dd565b600060209050601f831160018114620006f05760008415620006db578287015190505b620006e785826200065a565b86555062000757565b601f19841662000700866200049c565b60005b828110156200072a5784890151825560018201915060208501945060208101905062000703565b868310156200074a578489015162000746601f8916826200063a565b8355505b6001600288020188555050505b505050505050565b600073ffffffffffffffffffffffffffffffffffffffff82169050919050565b60006200078c826200075f565b9050919050565b6200079e816200077f565b82525050565b6000602082019050620007bb600083018462000793565b92915050565b6134bc80620007d16000396000f3fe608060405234801561001057600080fd5b50600436106101c45760003560e01c806370a08231116100f9578063b88d4fde11610097578063e33f48b711610071578063e33f48b714610529578063e985e9c514610559578063ea2fe3cb14610589578063f2fde38b146105a7576101c4565b8063b88d4fde146104bf578063c87b56dd146104db578063caa0f92a1461050b576101c4565b80638da5cb5b116100d35780638da5cb5b1461043757806395d89b4114610455578063a22cb46514610473578063b2cd18ad1461048f576101c4565b806370a08231146103e1578063715018a6146104115780637e518ec81461041b576101c4565b806320caf1c51161016657806342842e0e1161014057806342842e0e14610349578063594db9f6146103655780636352211e146103815780636abd7acd146103b1576101c4565b806320caf1c5146102cd57806323b872dd146102fd5780632ddbbb3214610319576101c4565b8063095ea7b3116101a2578063095ea7b31461024757806314c3ccc81461026357806318160ddd146102935780631c351a9d146102b1576101c4565b806301ffc9a7146101c957806306fdde03146101f9578063081812fc14610217575b600080fd5b6101e360048036038101906101de91906124ba565b6105c3565b6040516101f09190612502565b60405180910390f35b6102016105d5565b60405161020e91906125ad565b60405180910390f35b610231600480360381019061022c9190612605565b610667565b60405161023e9190612673565b60405180910390f35b610261600480360381019061025c91906126ba565b610683565b005b61027d60048036038101906102789190612605565b610699565b60405161028a91906125ad565b60405180910390f35b61029b610739565b6040516102a89190612709565b60405180910390f35b6102cb60048036038101906102c69190612859565b61074f565b005b6102e760048036038101906102e291906128b5565b610962565b6040516102f49190612709565b60405180910390f35b610317600480360381019061031291906128fe565b610990565b005b610333600480360381019061032e91906128b5565b610a92565b6040516103409190612502565b60405180910390f35b610363600480360381019061035e91906128fe565b610ac8565b005b61037f600480360381019061037a9190612859565b610ae8565b005b61039b60048036038101906103969190612605565b610d03565b6040516103a89190612673565b60405180910390f35b6103cb60048036038101906103c69190612605565b610d15565b6040516103d891906125ad565b60405180910390f35b6103fb60048036038101906103f69190612951565b610e31565b6040516104089190612709565b60405180910390f35b610419610eeb565b005b610435600480360381019061043091906128b5565b610eff565b005b61043f610f51565b60405161044c9190612673565b60405180910390f35b61045d610f7b565b60405161046a91906125ad565b60405180910390f35b61048d600480360381019061048891906129aa565b61100d565b005b6104a960048036038101906104a491906128b5565b611023565b6040516104b69190612502565b60405180910390f35b6104d960048036038101906104d49190612a8b565b611058565b005b6104f560048036038101906104f09190612605565b61107d565b60405161050291906125ad565b60405180910390f35b61051361120f565b6040516105209190612709565b60405180910390f35b610543600480360381019061053e91906128b5565b611219565b6040516105509190612709565b60405180910390f35b610573600480360381019061056e9190612b0e565b6112ac565b6040516105809190612502565b60405180910390f35b610591611340565b60405161059e91906125ad565b60405180910390f35b6105c160048036038101906105bc9190612951565b6113d2565b005b60006105ce82611458565b9050919050565b6060600080546105e490612b7d565b80601f016020809104026020016040519081016040528092919081815260200182805461061090612b7d565b801561065d5780601f106106325761010080835404028352916020019161065d565b820191906000526020600020905b81548152906001019060200180831161064057829003601f168201915b5050505050905090565b6000610672826114b9565b5061067c82611541565b9050919050565b610695828261069061157e565b611586565b5050565b600b60205280600052604060002060009150905080546106b890612b7d565b80601f01602080910402602001604051908101604052809291908181526020018280546106e490612b7d565b80156107315780601f1061070657610100808354040283529160200191610731565b820191906000526020600020905b81548152906001019060200180831161071457829003601f168201915b505050505081565b6000600160085461074a9190612bdd565b905090565b6000825111610793576040517f08c379a000000000000000000000000000000000000000000000000000000000815260040161078a90612c5d565b60405180910390fd5b600073ffffffffffffffffffffffffffffffffffffffff168173ffffffffffffffffffffffffffffffffffffffff1603610802576040517f08c379a00000000000000000000000000000000000000000000000000000000081526004016107f990612cc9565b60405180910390fd5b600c826040516108129190612d25565b908152602001604051809103902060009054906101000a900460ff161561086e576040517f08c379a000000000000000000000000000000000000000000000000000000000815260040161086590612d88565b60405180910390fd5b60006008600081548092919061088390612da8565b9190505590506108938282611598565b80600a846040516108a49190612d25565b90815260200160405180910390208190555082600b600083815260200190815260200160002090816108d69190612f9c565b506001600c846040516108e99190612d25565b908152602001604051809103902060006101000a81548160ff021916908315150217905550808273ffffffffffffffffffffffffffffffffffffffff167fd35bb95e09c04b219e35047ce7b7b300e3384264ef84a40456943dbc0fc17c148560405161095591906125ad565b60405180910390a3505050565b600a818051602081018201805184825260208301602085012081835280955050505050506000915090505481565b600073ffffffffffffffffffffffffffffffffffffffff168273ffffffffffffffffffffffffffffffffffffffff1603610a025760006040517f64a0ae920000000000000000000000000000000000000000000000000000000081526004016109f99190612673565b60405180910390fd5b6000610a168383610a1161157e565b6115b6565b90508373ffffffffffffffffffffffffffffffffffffffff168173ffffffffffffffffffffffffffffffffffffffff1614610a8c578382826040517f64283d7b000000000000000000000000000000000000000000000000000000008152600401610a839392919061306e565b60405180910390fd5b50505050565b600c818051602081018201805184825260208301602085012081835280955050505050506000915054906101000a900460ff1681565b610ae383838360405180602001604052806000815250611058565b505050565b610af06117d0565b6000825111610b34576040517f08c379a0000000000000000000000000000000000000000000000000000000008152600401610b2b90612c5d565b60405180910390fd5b600073ffffffffffffffffffffffffffffffffffffffff168173ffffffffffffffffffffffffffffffffffffffff1603610ba3576040517f08c379a0000000000000000000000000000000000000000000000000000000008152600401610b9a90612cc9565b60405180910390fd5b600c82604051610bb39190612d25565b908152602001604051809103902060009054906101000a900460ff1615610c0f576040517f08c379a0000000000000000000000000000000000000000000000000000000008152600401610c0690612d88565b60405180910390fd5b600060086000815480929190610c2490612da8565b919050559050610c348282611598565b80600a84604051610c459190612d25565b90815260200160405180910390208190555082600b60008381526020019081526020016000209081610c779190612f9c565b506001600c84604051610c8a9190612d25565b908152602001604051809103902060006101000a81548160ff021916908315150217905550808273ffffffffffffffffffffffffffffffffffffffff167fd35bb95e09c04b219e35047ce7b7b300e3384264ef84a40456943dbc0fc17c1485604051610cf691906125ad565b60405180910390a3505050565b6000610d0e826114b9565b9050919050565b6060600073ffffffffffffffffffffffffffffffffffffffff16610d3883611857565b73ffffffffffffffffffffffffffffffffffffffff1603610d8e576040517f08c379a0000000000000000000000000000000000000000000000000000000008152600401610d85906130f1565b60405180910390fd5b600b60008381526020019081526020016000208054610dac90612b7d565b80601f0160208091040260200160405190810160405280929190818152602001828054610dd890612b7d565b8015610e255780601f10610dfa57610100808354040283529160200191610e25565b820191906000526020600020905b815481529060010190602001808311610e0857829003601f168201915b50505050509050919050565b60008073ffffffffffffffffffffffffffffffffffffffff168273ffffffffffffffffffffffffffffffffffffffff1603610ea45760006040517f89c62b64000000000000000000000000000000000000000000000000000000008152600401610e9b9190612673565b60405180910390fd5b600360008373ffffffffffffffffffffffffffffffffffffffff1673ffffffffffffffffffffffffffffffffffffffff168152602001908152602001600020549050919050565b610ef36117d0565b610efd6000611894565b565b610f076117d0565b8060099081610f169190612f9c565b507fefafb90526da1636e1335eac0151301742fb755d986954c613b90e891778ba3981604051610f4691906125ad565b60405180910390a150565b6000600760009054906101000a900473ffffffffffffffffffffffffffffffffffffffff16905090565b606060018054610f8a90612b7d565b80601f0160208091040260200160405190810160405280929190818152602001828054610fb690612b7d565b80156110035780601f10610fd857610100808354040283529160200191611003565b820191906000526020600020905b815481529060010190602001808311610fe657829003601f168201915b5050505050905090565b61101f61101861157e565b838361195a565b5050565b6000600c826040516110359190612d25565b908152602001604051809103902060009054906101000a900460ff169050919050565b611063848484610990565b61107761106e61157e565b85858585611ac9565b50505050565b6060600073ffffffffffffffffffffffffffffffffffffffff166110a083611857565b73ffffffffffffffffffffffffffffffffffffffff16036110f6576040517f08c379a00000000000000000000000000000000000000000000000000000000081526004016110ed906130f1565b60405180910390fd5b6000600b6000848152602001908152602001600020805461111690612b7d565b80601f016020809104026020016040519081016040528092919081815260200182805461114290612b7d565b801561118f5780601f106111645761010080835404028352916020019161118f565b820191906000526020600020905b81548152906001019060200180831161117257829003601f168201915b5050505050905060008151116111da576040517f08c379a00000000000000000000000000000000000000000000000000000000081526004016111d19061315d565b60405180910390fd5b6009816111e685611c7a565b6040516020016111f893929190613298565b604051602081830303815290604052915050919050565b6000600854905090565b6000600c8260405161122b9190612d25565b908152602001604051809103902060009054906101000a900460ff16611286576040517f08c379a000000000000000000000000000000000000000000000000000000000815260040161127d9061332b565b60405180910390fd5b600a826040516112969190612d25565b9081526020016040518091039020549050919050565b6000600560008473ffffffffffffffffffffffffffffffffffffffff1673ffffffffffffffffffffffffffffffffffffffff16815260200190815260200160002060008373ffffffffffffffffffffffffffffffffffffffff1673ffffffffffffffffffffffffffffffffffffffff16815260200190815260200160002060009054906101000a900460ff16905092915050565b60606009805461134f90612b7d565b80601f016020809104026020016040519081016040528092919081815260200182805461137b90612b7d565b80156113c85780601f1061139d576101008083540402835291602001916113c8565b820191906000526020600020905b8154815290600101906020018083116113ab57829003601f168201915b5050505050905090565b6113da6117d0565b600073ffffffffffffffffffffffffffffffffffffffff168173ffffffffffffffffffffffffffffffffffffffff160361144c5760006040517f1e4fbdf70000000000000000000000000000000000000000000000000000000081526004016114439190612673565b60405180910390fd5b61145581611894565b50565b6000634906490660e01b7bffffffffffffffffffffffffffffffffffffffffffffffffffffffff1916827bffffffffffffffffffffffffffffffffffffffffffffffffffffffff191614806114b257506114b182611d48565b5b9050919050565b6000806114c583611857565b9050600073ffffffffffffffffffffffffffffffffffffffff168173ffffffffffffffffffffffffffffffffffffffff160361153857826040517f7e27328900000000000000000000000000000000000000000000000000000000815260040161152f9190612709565b60405180910390fd5b80915050919050565b60006004600083815260200190815260200160002060009054906101000a900473ffffffffffffffffffffffffffffffffffffffff169050919050565b600033905090565b6115938383836001611e2a565b505050565b6115b2828260405180602001604052806000815250611fef565b5050565b6000806115c284611857565b9050600073ffffffffffffffffffffffffffffffffffffffff168373ffffffffffffffffffffffffffffffffffffffff161461160457611603818486612013565b5b600073ffffffffffffffffffffffffffffffffffffffff168173ffffffffffffffffffffffffffffffffffffffff161461169557611646600085600080611e2a565b6001600360008373ffffffffffffffffffffffffffffffffffffffff1673ffffffffffffffffffffffffffffffffffffffff168152602001908152602001600020600082825403925050819055505b600073ffffffffffffffffffffffffffffffffffffffff168573ffffffffffffffffffffffffffffffffffffffff1614611718576001600360008773ffffffffffffffffffffffffffffffffffffffff1673ffffffffffffffffffffffffffffffffffffffff168152602001908152602001600020600082825401925050819055505b846002600086815260200190815260200160002060006101000a81548173ffffffffffffffffffffffffffffffffffffffff021916908373ffffffffffffffffffffffffffffffffffffffff160217905550838573ffffffffffffffffffffffffffffffffffffffff168273ffffffffffffffffffffffffffffffffffffffff167fddf252ad1be2c89b69c2b068fc378daa952ba7f163c4a11628f55a4df523b3ef60405160405180910390a4809150509392505050565b6117d861157e565b73ffffffffffffffffffffffffffffffffffffffff166117f6610f51565b73ffffffffffffffffffffffffffffffffffffffff16146118555761181961157e565b6040517f118cdaa700000000000000000000000000000000000000000000000000000000815260040161184c9190612673565b60405180910390fd5b565b60006002600083815260200190815260200160002060009054906101000a900473ffffffffffffffffffffffffffffffffffffffff169050919050565b6000600760009054906101000a900473ffffffffffffffffffffffffffffffffffffffff16905081600760006101000a81548173ffffffffffffffffffffffffffffffffffffffff021916908373ffffffffffffffffffffffffffffffffffffffff1602179055508173ffffffffffffffffffffffffffffffffffffffff168173ffffffffffffffffffffffffffffffffffffffff167f8be0079c531659141344cd1fd0a4f28419497f9722a3daafe3b4186f6b6457e060405160405180910390a35050565b600073ffffffffffffffffffffffffffffffffffffffff168273ffffffffffffffffffffffffffffffffffffffff16036119cb57816040517f5b08ba180000000000000000000000000000000000000000000000000000000081526004016119c29190612673565b60405180910390fd5b80600560008573ffffffffffffffffffffffffffffffffffffffff1673ffffffffffffffffffffffffffffffffffffffff16815260200190815260200160002060008473ffffffffffffffffffffffffffffffffffffffff1673ffffffffffffffffffffffffffffffffffffffff16815260200190815260200160002060006101000a81548160ff0219169083151502179055508173ffffffffffffffffffffffffffffffffffffffff168373ffffffffffffffffffffffffffffffffffffffff167f17307eab39ab6107e8899845ad3d59bd9653f200f220920489ca2b5937696c3183604051611abc9190612502565b60405180910390a3505050565b60008373ffffffffffffffffffffffffffffffffffffffff163b1115611c73578273ffffffffffffffffffffffffffffffffffffffff1663150b7a02868685856040518563ffffffff1660e01b8152600401611b2894939291906133a0565b6020604051808303816000875af1925050508015611b6457506040513d601f19601f82011682018060405250810190611b619190613401565b60015b611be8573d8060008114611b94576040519150601f19603f3d011682016040523d82523d6000602084013e611b99565b606091505b506000815103611be057836040517f64a0ae92000000000000000000000000000000000000000000000000000000008152600401611bd79190612673565b60405180910390fd5b805160208201fd5b63150b7a0260e01b7bffffffffffffffffffffffffffffffffffffffffffffffffffffffff1916817bffffffffffffffffffffffffffffffffffffffffffffffffffffffff191614611c7157836040517f64a0ae92000000000000000000000000000000000000000000000000000000008152600401611c689190612673565b60405180910390fd5b505b5050505050565b606060006001611c89846120d7565b01905060008167ffffffffffffffff811115611ca857611ca761272e565b5b6040519080825280601f01601f191660200182016040528015611cda5781602001600182028036833780820191505090505b509050600082602083010190505b600115611d3d578080600190039150507f3031323334353637383961626364656600000000000000000000000000000000600a86061a8153600a8581611d3157611d3061342e565b5b04945060008503611ce8575b819350505050919050565b60007f80ac58cd000000000000000000000000000000000000000000000000000000007bffffffffffffffffffffffffffffffffffffffffffffffffffffffff1916827bffffffffffffffffffffffffffffffffffffffffffffffffffffffff19161480611e1357507f5b5e139f000000000000000000000000000000000000000000000000000000007bffffffffffffffffffffffffffffffffffffffffffffffffffffffff1916827bffffffffffffffffffffffffffffffffffffffffffffffffffffffff1916145b80611e235750611e228261222a565b5b9050919050565b8080611e635750600073ffffffffffffffffffffffffffffffffffffffff168273ffffffffffffffffffffffffffffffffffffffff1614155b15611f97576000611e73846114b9565b9050600073ffffffffffffffffffffffffffffffffffffffff168373ffffffffffffffffffffffffffffffffffffffff1614158015611ede57508273ffffffffffffffffffffffffffffffffffffffff168173ffffffffffffffffffffffffffffffffffffffff1614155b8015611ef15750611eef81846112ac565b155b15611f3357826040517fa9fbf51f000000000000000000000000000000000000000000000000000000008152600401611f2a9190612673565b60405180910390fd5b8115611f9557838573ffffffffffffffffffffffffffffffffffffffff168273ffffffffffffffffffffffffffffffffffffffff167f8c5be1e5ebec7d5bd14f71427d1e84f3dd0314c0f7b2291e5b200ac8c7c3b92560405160405180910390a45b505b836004600085815260200190815260200160002060006101000a81548173ffffffffffffffffffffffffffffffffffffffff021916908373ffffffffffffffffffffffffffffffffffffffff16021790555050505050565b611ff98383612294565b61200e61200461157e565b6000858585611ac9565b505050565b61201e83838361238d565b6120d257600073ffffffffffffffffffffffffffffffffffffffff168373ffffffffffffffffffffffffffffffffffffffff160361209357806040517f7e27328900000000000000000000000000000000000000000000000000000000815260040161208a9190612709565b60405180910390fd5b81816040517f177e802f0000000000000000000000000000000000000000000000000000000081526004016120c992919061345d565b60405180910390fd5b505050565b600080600090507a184f03e93ff9f4daa797ed6e38ed64bf6a1f0100000000000000008310612135577a184f03e93ff9f4daa797ed6e38ed64bf6a1f010000000000000000838161212b5761212a61342e565b5b0492506040810190505b6d04ee2d6d415b85acef81000000008310612172576d04ee2d6d415b85acef810000000083816121685761216761342e565b5b0492506020810190505b662386f26fc1000083106121a157662386f26fc1000083816121975761219661342e565b5b0492506010810190505b6305f5e10083106121ca576305f5e10083816121c0576121bf61342e565b5b0492506008810190505b61271083106121ef5761271083816121e5576121e461342e565b5b0492506004810190505b6064831061221257606483816122085761220761342e565b5b0492506002810190505b600a8310612221576001810190505b80915050919050565b60007f01ffc9a7000000000000000000000000000000000000000000000000000000007bffffffffffffffffffffffffffffffffffffffffffffffffffffffff1916827bffffffffffffffffffffffffffffffffffffffffffffffffffffffff1916149050919050565b600073ffffffffffffffffffffffffffffffffffffffff168273ffffffffffffffffffffffffffffffffffffffff16036123065760006040517f64a0ae920000000000000000000000000000000000000000000000000000000081526004016122fd9190612673565b60405180910390fd5b6000612314838360006115b6565b9050600073ffffffffffffffffffffffffffffffffffffffff168173ffffffffffffffffffffffffffffffffffffffff16146123885760006040517f73c6ac6e00000000000000000000000000000000000000000000000000000000815260040161237f9190612673565b60405180910390fd5b505050565b60008073ffffffffffffffffffffffffffffffffffffffff168373ffffffffffffffffffffffffffffffffffffffff161415801561244557508273ffffffffffffffffffffffffffffffffffffffff168473ffffffffffffffffffffffffffffffffffffffff161480612406575061240584846112ac565b5b8061244457508273ffffffffffffffffffffffffffffffffffffffff1661242c83611541565b73ffffffffffffffffffffffffffffffffffffffff16145b5b90509392505050565b6000604051905090565b600080fd5b600080fd5b60007fffffffff0000000000000000000000000000000000000000000000000000000082169050919050565b61249781612462565b81146124a257600080fd5b50565b6000813590506124b48161248e565b92915050565b6000602082840312156124d0576124cf612458565b5b60006124de848285016124a5565b91505092915050565b60008115159050919050565b6124fc816124e7565b82525050565b600060208201905061251760008301846124f3565b92915050565b600081519050919050565b600082825260208201905092915050565b60005b8381101561255757808201518184015260208101905061253c565b60008484015250505050565b6000601f19601f8301169050919050565b600061257f8261251d565b6125898185612528565b9350612599818560208601612539565b6125a281612563565b840191505092915050565b600060208201905081810360008301526125c78184612574565b905092915050565b6000819050919050565b6125e2816125cf565b81146125ed57600080fd5b50565b6000813590506125ff816125d9565b92915050565b60006020828403121561261b5761261a612458565b5b6000612629848285016125f0565b91505092915050565b600073ffffffffffffffffffffffffffffffffffffffff82169050919050565b600061265d82612632565b9050919050565b61266d81612652565b82525050565b60006020820190506126886000830184612664565b92915050565b61269781612652565b81146126a257600080fd5b50565b6000813590506126b48161268e565b92915050565b600080604083850312156126d1576126d0612458565b5b60006126df858286016126a5565b92505060206126f0858286016125f0565b9150509250929050565b612703816125cf565b82525050565b600060208201905061271e60008301846126fa565b92915050565b600080fd5b600080fd5b7f4e487b7100000000000000000000000000000000000000000000000000000000600052604160045260246000fd5b61276682612563565b810181811067ffffffffffffffff821117156127855761278461272e565b5b80604052505050565b600061279861244e565b90506127a4828261275d565b919050565b600067ffffffffffffffff8211156127c4576127c361272e565b5b6127cd82612563565b9050602081019050919050565b82818337600083830152505050565b60006127fc6127f7846127a9565b61278e565b90508281526020810184848401111561281857612817612729565b5b6128238482856127da565b509392505050565b600082601f8301126128405761283f612724565b5b81356128508482602086016127e9565b91505092915050565b600080604083850312156128705761286f612458565b5b600083013567ffffffffffffffff81111561288e5761288d61245d565b5b61289a8582860161282b565b92505060206128ab858286016126a5565b9150509250929050565b6000602082840312156128cb576128ca612458565b5b600082013567ffffffffffffffff8111156128e9576128e861245d565b5b6128f58482850161282b565b91505092915050565b60008060006060848603121561291757612916612458565b5b6000612925868287016126a5565b9350506020612936868287016126a5565b9250506040612947868287016125f0565b9150509250925092565b60006020828403121561296757612966612458565b5b6000612975848285016126a5565b91505092915050565b612987816124e7565b811461299257600080fd5b50565b6000813590506129a48161297e565b92915050565b600080604083850312156129c1576129c0612458565b5b60006129cf858286016126a5565b92505060206129e085828601612995565b9150509250929050565b600067ffffffffffffffff821115612a0557612a0461272e565b5b612a0e82612563565b9050602081019050919050565b6000612a2e612a29846129ea565b61278e565b905082815260208101848484011115612a4a57612a49612729565b5b612a558482856127da565b509392505050565b600082601f830112612a7257612a71612724565b5b8135612a82848260208601612a1b565b91505092915050565b60008060008060808587031215612aa557612aa4612458565b5b6000612ab3878288016126a5565b9450506020612ac4878288016126a5565b9350506040612ad5878288016125f0565b925050606085013567ffffffffffffffff811115612af657612af561245d565b5b612b0287828801612a5d565b91505092959194509250565b60008060408385031215612b2557612b24612458565b5b6000612b33858286016126a5565b9250506020612b44858286016126a5565b9150509250929050565b7f4e487b7100000000000000000000000000000000000000000000000000000000600052602260045260246000fd5b60006002820490506001821680612b9557607f821691505b602082108103612ba857612ba7612b4e565b5b50919050565b7f4e487b7100000000000000000000000000000000000000000000000000000000600052601160045260246000fd5b6000612be8826125cf565b9150612bf3836125cf565b9250828203905081811115612c0b57612c0a612bae565b5b92915050565b7f436c61696d2049442063616e6e6f7420626520656d7074790000000000000000600082015250565b6000612c47601883612528565b9150612c5282612c11565b602082019050919050565b60006020820190508181036000830152612c7681612c3a565b9050919050565b7f43616e6e6f74206d696e7420746f207a65726f20616464726573730000000000600082015250565b6000612cb3601b83612528565b9150612cbe82612c7d565b602082019050919050565b60006020820190508181036000830152612ce281612ca6565b9050919050565b600081905092915050565b6000612cff8261251d565b612d098185612ce9565b9350612d19818560208601612539565b80840191505092915050565b6000612d318284612cf4565b915081905092915050565b7f436c61696d20616c7265616479206d696e746564000000000000000000000000600082015250565b6000612d72601483612528565b9150612d7d82612d3c565b602082019050919050565b60006020820190508181036000830152612da181612d65565b9050919050565b6000612db3826125cf565b91507fffffffffffffffffffffffffffffffffffffffffffffffffffffffffffffffff8203612de557612de4612bae565b5b600182019050919050565b60008190508160005260206000209050919050565b60006020601f8301049050919050565b600082821b905092915050565b600060088302612e527fffffffffffffffffffffffffffffffffffffffffffffffffffffffffffffffff82612e15565b612e5c8683612e15565b95508019841693508086168417925050509392505050565b6000819050919050565b6000612e99612e94612e8f846125cf565b612e74565b6125cf565b9050919050565b6000819050919050565b612eb383612e7e565b612ec7612ebf82612ea0565b848454612e22565b825550505050565b600090565b612edc612ecf565b612ee7818484612eaa565b505050565b5b81811015612f0b57612f00600082612ed4565b600181019050612eed565b5050565b601f821115612f5057612f2181612df0565b612f2a84612e05565b81016020851015612f39578190505b612f4d612f4585612e05565b830182612eec565b50505b505050565b600082821c905092915050565b6000612f7360001984600802612f55565b1980831691505092915050565b6000612f8c8383612f62565b9150826002028217905092915050565b612fa58261251d565b67ffffffffffffffff811115612fbe57612fbd61272e565b5b612fc88254612b7d565b612fd3828285612f0f565b600060209050601f8311600181146130065760008415612ff4578287015190505b612ffe8582612f80565b865550613066565b601f19841661301486612df0565b60005b8281101561303c57848901518255600182019150602085019450602081019050613017565b868310156130595784890151613055601f891682612f62565b8355505b6001600288020188555050505b505050505050565b60006060820190506130836000830186612664565b61309060208301856126fa565b61309d6040830184612664565b949350505050565b7f546f6b656e20646f6573206e6f74206578697374000000000000000000000000600082015250565b60006130db601483612528565b91506130e6826130a5565b602082019050919050565b6000602082019050818103600083015261310a816130ce565b9050919050565b7f4e6f20636c61696d20494420666f7220746f6b656e0000000000000000000000600082015250565b6000613147601583612528565b915061315282613111565b602082019050919050565b600060208201905081810360008301526131768161313a565b9050919050565b6000815461318a81612b7d565b6131948186612ce9565b945060018216600081146131af57600181146131c4576131f7565b60ff19831686528115158202860193506131f7565b6131cd85612df0565b60005b838110156131ef578154818901526001820191506020810190506131d0565b838801955050505b50505092915050565b7f2f6170692f6d657461646174612f000000000000000000000000000000000000600082015250565b6000613236600e83612ce9565b915061324182613200565b600e82019050919050565b7f2f00000000000000000000000000000000000000000000000000000000000000600082015250565b6000613282600183612ce9565b915061328d8261324c565b600182019050919050565b60006132a4828661317d565b91506132af82613229565b91506132bb8285612cf4565b91506132c682613275565b91506132d28284612cf4565b9150819050949350505050565b7f436c61696d206e6f74206d696e74656400000000000000000000000000000000600082015250565b6000613315601083612528565b9150613320826132df565b602082019050919050565b6000602082019050818103600083015261334481613308565b9050919050565b600081519050919050565b600082825260208201905092915050565b60006133728261334b565b61337c8185613356565b935061338c818560208601612539565b61339581612563565b840191505092915050565b60006080820190506133b56000830187612664565b6133c26020830186612664565b6133cf60408301856126fa565b81810360608301526133e18184613367565b905095945050505050565b6000815190506133fb8161248e565b92915050565b60006020828403121561341757613416612458565b5b6000613425848285016133ec565b91505092915050565b7f4e487b7100000000000000000000000000000000000000000000000000000000600052601260045260246000fd5b60006040820190506134726000830185612664565b61347f60208301846126fa565b939250505056fea2646970667358221220ea43ed959878c9fd70416ae99150c1925f2ae67592814cb36330d034944c8e9b64736f6c63430008140033",
    "linkReferences": {},
    "deployedLinkReferences": {}
}